:1000000005308A00492D0000D4326D386539613AD7
:100010007539651D000043100001A02272396F3947
:1000200021100000363084008313000803192628AD
:100030000530F800F701F70B1B28F80B1A282E30B3
:10004000F700F70B21282428800B182808003D18FA
:100050002B2888112C288815831688118312BD1827
:1000600033280812342808168316081283123D1903
:100070003B2888123C288816831688128312BD19E3
:100080004328081344280817831608130000831216
:100090000815831608110230F700F70B4D280000F1
:1000A000831208118316081183120800BE018316FB
:1000B00088150030831288190130BE048316081693
:1000C00000308312081A0130F7000310F70D77088B
:1000D000BE048316881600308312881A0130F70098
:1000E000F70DF70DFC30F7057708BE0483160817E7
:1000F00000308312081B0130F700F70DF70DF70DE4
:10010000F830F7057708BE043E08F80008008316AB
:10011000081108108810831208108316081088151B
:100120000816881608178312881483168810000092
:1001300083120815831608110000831256207808D0
:10014000BD000811831608110000831208158316DC
:100150000811AA28AB28831256207808BC00081181
:1001600083160811881108128812081383123D0E95
:10017000F700F030F70577083C04F8007808BC0079
:10018000BC1FC42883168F28BA08031DC92808106D
:10019000CA280814831608100000831288108316DA
:1001A00088100000831208118316081183123B0E79
:1001B000BC000F30BC053C08BD0027203B080F39B0
:1001C000BC00BD00272008002830A9000C30AA0080
:1001D0000130AB000630AC00081183160811831201
:1001E000081083160810831288108316881088114F
:1001F0000812881208130811081088100F30831293
:10020000B60012200130A8002808033C031C102966
:100210000330BD0027200530B6001220A80A0429AB
:100220000230BD0027200530B6001220A8012808A2
:10023000033C031C27292930280784008313000866
:10024000AD00BA012D08BB008720A80A17298A1122
:100250000A12592D370B2D2930294030B800312989
:10026000B80101303602B80738088038B900BA0141
:100270003908BB00872008003508073A03194A29C6
:100280000B3A03194F29063A03195729023A031961
:100290005D2962290130B600B7002A216729BA0119
:1002A0000130BB0087200230B600122067290130E0
:1002B000B6000230B7002A216729BA011030BB000E
:1002C000872067290130BA003508BB008720080065
:1002D0000B08A8008B13831603178C170C1400004F
:1002E000000083120313A81B8B1703170C087F3918
:1002F0000319BC290313A80003170D080313A90051
:1003000003170F080313AA002808B5003C21290889
:1003100003178D0003132A0803178F0003130B081C
:10032000AB008B13831603178C170C14000000000E
:1003300083120313AB1B8B1703170C0D0E0D7F39A4
:100340000319BC290313A80003170D080313A90000
:1003500003170F080313AA002808B5003C21290839
:1003600003178D0003132A0803178F008D0A031942
:100370008F0A031368290317031308000330AB0225
:10038000031CCC292B308400831300080319CC29CB
:10039000CA290000800BC929080083168610831221
:1003A00086108316861002308312AA00F930AB0043
:1003B000BE21AA0BD629831686148530F700F70BC9
:1003C000DF29861483128618EF290230AA00C7306D
:1003D000AB00BE21AA0BE7290130F800F12900305B
:1003E000F8000800AB012B08073C031C292A2A0847
:1003F000F7002B08F8000319012A0310F70CF80B7B
:10040000FD29003077180130AC002C08AD008316B0
:10041000861083128610831686100230F700F70BC1
:100420000F2A00008312AD08031D182A8610192A0E
:100430008614831686106A30F700F70B1D2A000019
:1004400086140230F700F70B232A00008312AB0A50
:10045000F3290800AF01AE012E08073C031C572A00
:100460008316861083128610831686100230F700DA
:10047000F70B382A000086140630F700F70B3E2AE7
:100480000000861483123010861830148530F7006F
:10049000F70B482A003030180130F800F808031D27
:1004A000532A0310542A0314AF0CAE0A2C2A2F0827
:1004B000F8000800CD21F808031D612A0030F8007B
:1004C000AF2ACC30AA00F2214430AA00F2212A221D
:1004D000F8080319672ACD21F808031D722A003095
:1004E000F800AF2ACC30AA00F221BE30AA00F221D7
:1004F0002908FA002808AA002908AB002A222A089D
:10050000840083132B188317840A800184037808DE
:1005100080002908FA002808AA002908AB0028084A
:100520008400831329188317840A0008AD0084030C
:100530000008AC002A22AF0100302C04F700780834
:100540002D04FA002A08840083132B188317840AC9
:100550007A0880008403770880000130F8008A114F
:100560000A126C2D8E30F7002908F8002808F900CF
:10057000FA01A91FC02AF809F909F90A0319F80AAA
:10058000F808031DCD2A7908F800F9010830F702B0
:10059000F808031DCD2AF701D62A0310F81BD42A28
:1005A000F90DF80DF703CD2AA91FF8138A110A12C5
:1005B000742D2C0803199E2BB800300803199E2BAC
:1005C000B802031CE82A7F30B80703189E2BEE2AD6
:1005D0008130B802031C9E2B03199E2B3808F700AC
:1005E000F801F901FA01B7012D08B600B6172E0877
:1005F000B5002F08B4001930B8003308B40203184E
:10060000112B0130B5020318112BB6020318112B60
:10061000B7020318112BB70AB60AB50A3308B40794
:10062000432B3208B50203182C2B0130B6020318F5
:100630002C2BB70203182C2BB70AB60A3208B507C1
:100640003308B407031C432BB50A031D432BB60A1A
:10065000031D432BB70A432B31088038B602031819
:10066000422B0130B7020318422BB70A31088038F9
:10067000B6073208B507031C202BB60A031D202B32
:10068000B70A202B7A14B80B462B512B0310B40D4C
:10069000B50DB60DB70D0310FA0DF90DF80DB90D26
:1006A000FD2A391C592B0310F80CF90CFA0CB90C63
:1006B0005C2BF70303199E2BB91B852B0310B40D7C
:1006C000B50DB60DB70D3308B4020318712B013008
:1006D000B5020318712BB6020318712BB702031C65
:1006E000942B3208B50203187C2B0130B602031894
:1006F0007C2BB702031C942B31088038B6020318F8
:10070000852B0130B702031C942BFA0A031D942B8E
:10071000F90A031D942BF80A031D942BF70A0319F9
:100720009E2BF80CF90CFA0C2D08B8003108B8060D
:10073000B81F9C2BF817A22BF813A22BF701F80176
:10074000F901FA018A110A128A2D8318AA2B3D3069
:1007500084008313F701F801F901FA01BD01BE011C
:10076000BF01C0013C083B043A0439040319E82BDB
:100770002030C1000310B50DB60DB70DB80DBD0D7D
:10078000BE0DBF0DC00D3C084002031DD12B3B0820
:100790003F02031DD12B3A083E02031DD12B39081D
:1007A0003D02031CE22B3908BD023A08031C3A0F34
:1007B000BE023B08031C3B0FBF023C08031C3C0F5E
:1007C000C0020314F70DF80DF90DFA0DC10BBA2B89
:1007D0003D088000840A3E088000840A3F088000AB
:1007E000840A4008800008000408AD002C08AF000F
:1007F0000319862C2B08B8002A08B7002908B60070
:100800002808B500BC01BB012030BA008230B90015
:1008100035080319782CBD0039080319782CBD0759
:100820000318192C7F30BD02031C782C0319782C77
:100830001D2C8130BD070318782C3D08F700F80106
:10084000F901FA013608C100C1173708C00038089D
:10085000BF001830BD00BE013F1C462C3C08FA0703
:10086000031C382CF90A031D382CF80A0319BE178B
:100870003B08F907031C3F2CF80A0319BE173A0876
:10088000B700B7173708F8070318BE17BE0DF80CE6
:10089000F90CFA0CC10CC00CBF0C0310BD0B2B2CB7
:1008A0000130F7070318782CF81B5D2CC10DFA0DE9
:1008B000F90DF80DF7030319782CC11F6E2CFA0AF5
:1008C000031D6E2CF90A031D6E2CF80A031D6E2CF5
:1008D000F80CF90CFA0CF70A0319782C3608BE004C
:1008E0003A08BE06BE1F762CF8177C2CF8137C2C19
:1008F000F701F801F901FA017A08AB007908AA00BA
:100900007808A9007708A800AF0BFA2B2B08B800CD
:100910002A08B7002908B6002808B5003508B63CF3
:10092000B500FA013608B900B6170310B60CB70CBB
:10093000B80CFA0CF90CF80CF70CB50B952CB91F88
:10094000AC2CF709F809F909FA09F70A0319F80AAA
:100950000319F90A0319FA0A7A08AB007908AA0000
:100960007808A9007708A800AB1FC32CAD03AD160B
:10097000A809A909AA09AB09A80A0319A90A031910
:10098000AA0A0319AB0A3B30B4009A30B300CA304C
:10099000B200B1010A30AF002C080319AD0A83146C
:1009A0002830840083132B08B8002A08B7002908D0
:1009B000B6002808B5003408BC003308BB00320874
:1009C000BA003108B900A5237808F708031DFB2CED
:1009D0002C0A2F020319FB2C2D080319FD2C0F39AB
:1009E0002F020319F52C03182D2DAD1B2D2D2D1BBA
:1009F000FD2C2030292D2030AD05AD1E0B2DAD1264
:100A00002C08031DAD037708AD002D30B5003C2147
:100A10002D08F700AD012C082F02031D192D7708B2
:100A2000AD002E30B5003C212D08F7002030AD057B
:100A300000303030AD1E292DAD122C08031DAD0342
:100A40007708AD002D30B5003C212D08F700AD0131
:100A50003030F7077708B5003C2183103408B80020
:100A60003308B7003208B6003108B500BC01BB013D
:100A7000BA010A30B900A5237A08B4007908B30096
:100A80007808B2007708B100AF0BCF2C8A110A1298
:100A9000A42D03081F398300A701A6018313831621
:100AA0001F149F141F159F1107309C00831383127E
:100AB000E4280C30B5003C210330B6000130B7000B
:100AC0002A21043003178D0000308F0003136821A2
:100AD000A9012030A8005A2AF8080319AF2D2108CF
:100AE000A9002008A800B22A7A08AB007908AA0059
:100AF0007808A9007708A8007A08AF007908AE0046
:100B00007808AD007708AC00B301B201B1018330C1
:100B1000B000D92A7A08A5007908A4007808A300B3
:100B20007708A2000530B6000230B7002A218930CC
:100B300084002508AB002408AA002308A900220885
:100B4000A8000230AC00F42BDF30B5003C210B30A4
:100B500003178D0000308F0003136821BB2D053073
:100B6000B6000230B7002A210D3003178D00003087
:100B70008F00031368210430A800FA30B600122059
:080B8000A80BBD2D682D6300D8
:02400E00723FFF
:00000001FF
;PIC16F877A
;CRC=A191  CREATED="12-janv.-26 14:18"
